{
  "contractName": "Askconsortium",
  "abi": [
    {
      "constant": true,
      "inputs": [],
      "name": "chairperson",
      "outputs": [
        {
          "name": "",
          "type": "address"
        }
      ],
      "payable": false,
      "stateMutability": "view",
      "type": "function",
      "signature": "0x2e4176cf"
    },
    {
      "inputs": [],
      "payable": true,
      "stateMutability": "payable",
      "type": "constructor",
      "signature": "constructor"
    },
    {
      "anonymous": false,
      "inputs": [
        {
          "indexed": false,
          "name": "from",
          "type": "address"
        },
        {
          "indexed": false,
          "name": "value",
          "type": "uint256"
        }
      ],
      "name": "Deposit",
      "type": "event",
      "signature": "0xe1fffcc4923d04b559f4d29a8bfc6cda04eb5b0d3c460751c2402c5c5cc9109c"
    },
    {
      "constant": false,
      "inputs": [],
      "name": "register",
      "outputs": [],
      "payable": true,
      "stateMutability": "payable",
      "type": "function",
      "signature": "0x1aa3a008"
    },
    {
      "constant": false,
      "inputs": [
        {
          "name": "airline",
          "type": "address"
        }
      ],
      "name": "unregister",
      "outputs": [],
      "payable": true,
      "stateMutability": "payable",
      "type": "function",
      "signature": "0x2ec2c246"
    },
    {
      "constant": false,
      "inputs": [
        {
          "name": "toAirline",
          "type": "address"
        }
      ],
      "name": "settlePayment",
      "outputs": [],
      "payable": true,
      "stateMutability": "payable",
      "type": "function",
      "signature": "0x2109dc88"
    },
    {
      "constant": false,
      "inputs": [
        {
          "name": "toAirline",
          "type": "bytes32"
        },
        {
          "name": "noOfSeats",
          "type": "uint256"
        },
        {
          "name": "flightNumber",
          "type": "bytes32"
        }
      ],
      "name": "request",
      "outputs": [],
      "payable": false,
      "stateMutability": "nonpayable",
      "type": "function",
      "signature": "0xc8826de4"
    },
    {
      "constant": false,
      "inputs": [
        {
          "name": "toAirline",
          "type": "bytes32"
        },
        {
          "name": "noOfSeats",
          "type": "uint256"
        },
        {
          "name": "flightNumber",
          "type": "bytes32"
        },
        {
          "name": "done",
          "type": "uint256"
        }
      ],
      "name": "response",
      "outputs": [],
      "payable": false,
      "stateMutability": "nonpayable",
      "type": "function",
      "signature": "0x8a242141"
    },
    {
      "constant": false,
      "inputs": [],
      "name": "replenish",
      "outputs": [],
      "payable": true,
      "stateMutability": "payable",
      "type": "function",
      "signature": "0xd163af7b"
    },
    {
      "constant": true,
      "inputs": [],
      "name": "viewBalance",
      "outputs": [
        {
          "name": "",
          "type": "uint256"
        }
      ],
      "payable": false,
      "stateMutability": "view",
      "type": "function",
      "signature": "0x3ff1e05b"
    }
  ],
  "bytecode": "0x6080604052336000806101000a81548173ffffffffffffffffffffffffffffffffffffffff021916908373ffffffffffffffffffffffffffffffffffffffff16021790555060018060008060009054906101000a900473ffffffffffffffffffffffffffffffffffffffff1673ffffffffffffffffffffffffffffffffffffffff1673ffffffffffffffffffffffffffffffffffffffff16815260200190815260200160002060010160006101000a81548160ff02191690831515021790555034600160008060009054906101000a900473ffffffffffffffffffffffffffffffffffffffff1673ffffffffffffffffffffffffffffffffffffffff1673ffffffffffffffffffffffffffffffffffffffff16815260200190815260200160002060000181905550610e11806101366000396000f3fe60806040526004361061008e576000357c0100000000000000000000000000000000000000000000000000000000900463ffffffff1680631aa3a008146100935780632109dc881461009d5780632e4176cf146100e15780632ec2c246146101385780633ff1e05b1461017c5780638a242141146101a7578063c8826de414610200578063d163af7b1461024f575b600080fd5b61009b610259565b005b6100df600480360360208110156100b357600080fd5b81019080803573ffffffffffffffffffffffffffffffffffffffff169060200190929190505050610441565b005b3480156100ed57600080fd5b506100f661053e565b604051808273ffffffffffffffffffffffffffffffffffffffff1673ffffffffffffffffffffffffffffffffffffffff16815260200191505060405180910390f35b61017a6004803603602081101561014e57600080fd5b81019080803573ffffffffffffffffffffffffffffffffffffffff169060200190929190505050610563565b005b34801561018857600080fd5b506101916107d2565b6040518082815260200191505060405180910390f35b3480156101b357600080fd5b506101fe600480360360808110156101ca57600080fd5b81019080803590602001909291908035906020019092919080359060200190929190803590602001909291905050506108e0565b005b34801561020c57600080fd5b5061024d6004803603606081101561022357600080fd5b81019080803590602001909291908035906020019092919080359060200190929190505050610ac6565b005b610257610c64565b005b674563918244f4000034101515156102d9576040517f08c379a00000000000000000000000000000000000000000000000000000000081526004018080602001828103825260178152602001807f6e65656420746f2061746c65617374203520657468657200000000000000000081525060200191505060405180910390fd5b600160003373ffffffffffffffffffffffffffffffffffffffff1673ffffffffffffffffffffffffffffffffffffffff16815260200190815260200160002060010160009054906101000a900460ff1615151561039e576040517f08c379a000000000000000000000000000000000000000000000000000000000815260040180806020018281038252600e8152602001807f757365722069732061637469766500000000000000000000000000000000000081525060200191505060405180910390fd5b60018060003373ffffffffffffffffffffffffffffffffffffffff1673ffffffffffffffffffffffffffffffffffffffff16815260200190815260200160002060010160006101000a81548160ff02191690831515021790555034600160003373ffffffffffffffffffffffffffffffffffffffff1673ffffffffffffffffffffffffffffffffffffffff16815260200190815260200160002060000181905550565b600160003373ffffffffffffffffffffffffffffffffffffffff1673ffffffffffffffffffffffffffffffffffffffff16815260200190815260200160002060010160009054906101000a900460ff1680156104e95750600160008273ffffffffffffffffffffffffffffffffffffffff1673ffffffffffffffffffffffffffffffffffffffff16815260200190815260200160002060010160009054906101000a900460ff165b15156104f457600080fd5b8073ffffffffffffffffffffffffffffffffffffffff166108fc349081150290604051600060405180830381858888f1935050505015801561053a573d6000803e3d6000fd5b5050565b6000809054906101000a900473ffffffffffffffffffffffffffffffffffffffff1681565b6000809054906101000a900473ffffffffffffffffffffffffffffffffffffffff1673ffffffffffffffffffffffffffffffffffffffff163373ffffffffffffffffffffffffffffffffffffffff16141515610627576040517f08c379a00000000000000000000000000000000000000000000000000000000081526004018080602001828103825260148152602001807f75736572206973206e6f7420616e2061646d696e00000000000000000000000081525060200191505060405180910390fd5b600160008273ffffffffffffffffffffffffffffffffffffffff1673ffffffffffffffffffffffffffffffffffffffff16815260200190815260200160002060010160009054906101000a900460ff1615156106eb576040517f08c379a000000000000000000000000000000000000000000000000000000000815260040180806020018281038252600f8152602001807f55736572206e6f7420616374697665000000000000000000000000000000000081525060200191505060405180910390fd5b6000600160008373ffffffffffffffffffffffffffffffffffffffff1673ffffffffffffffffffffffffffffffffffffffff16815260200190815260200160002060010160006101000a81548160ff0219169083151502179055508073ffffffffffffffffffffffffffffffffffffffff166108fc600160008473ffffffffffffffffffffffffffffffffffffffff1673ffffffffffffffffffffffffffffffffffffffff168152602001908152602001600020600001549081150290604051600060405180830381858888f193505050501580156107ce573d6000803e3d6000fd5b5050565b6000600160003373ffffffffffffffffffffffffffffffffffffffff1673ffffffffffffffffffffffffffffffffffffffff16815260200190815260200160002060010160009054906101000a900460ff161515610898576040517f08c379a00000000000000000000000000000000000000000000000000000000081526004018080602001828103825260128152602001807f75736572206973206e6f7420616374697665000000000000000000000000000081525060200191505060405180910390fd5b600160003373ffffffffffffffffffffffffffffffffffffffff1673ffffffffffffffffffffffffffffffffffffffff16815260200190815260200160002060000154905090565b600160003373ffffffffffffffffffffffffffffffffffffffff1673ffffffffffffffffffffffffffffffffffffffff16815260200190815260200160002060010160009054906101000a900460ff1615156109a4576040517f08c379a00000000000000000000000000000000000000000000000000000000081526004018080602001828103825260128152602001807f75736572206973206e6f7420616374697665000000000000000000000000000081525060200191505060405180910390fd5b83600260003373ffffffffffffffffffffffffffffffffffffffff1673ffffffffffffffffffffffffffffffffffffffff1681526020019081526020016000206000018190555082600360003373ffffffffffffffffffffffffffffffffffffffff1673ffffffffffffffffffffffffffffffffffffffff1681526020019081526020016000206001018190555081600360003373ffffffffffffffffffffffffffffffffffffffff1673ffffffffffffffffffffffffffffffffffffffff1681526020019081526020016000206002018190555080600260003373ffffffffffffffffffffffffffffffffffffffff1673ffffffffffffffffffffffffffffffffffffffff1681526020019081526020016000206003018190555050505050565b600160003373ffffffffffffffffffffffffffffffffffffffff1673ffffffffffffffffffffffffffffffffffffffff16815260200190815260200160002060010160009054906101000a900460ff161515610b8a576040517f08c379a00000000000000000000000000000000000000000000000000000000081526004018080602001828103825260128152602001807f75736572206973206e6f7420616374697665000000000000000000000000000081525060200191505060405180910390fd5b82600360003373ffffffffffffffffffffffffffffffffffffffff1673ffffffffffffffffffffffffffffffffffffffff1681526020019081526020016000206000018190555081600360003373ffffffffffffffffffffffffffffffffffffffff1673ffffffffffffffffffffffffffffffffffffffff1681526020019081526020016000206001018190555080600360003373ffffffffffffffffffffffffffffffffffffffff1673ffffffffffffffffffffffffffffffffffffffff16815260200190815260200160002060020181905550505050565b600160003373ffffffffffffffffffffffffffffffffffffffff1673ffffffffffffffffffffffffffffffffffffffff16815260200190815260200160002060010160009054906101000a900460ff161515610d28576040517f08c379a00000000000000000000000000000000000000000000000000000000081526004018080602001828103825260128152602001807f75736572206973206e6f7420616374697665000000000000000000000000000081525060200191505060405180910390fd5b34600160003373ffffffffffffffffffffffffffffffffffffffff1673ffffffffffffffffffffffffffffffffffffffff168152602001908152602001600020600001600082825401925050819055507fe1fffcc4923d04b559f4d29a8bfc6cda04eb5b0d3c460751c2402c5c5cc9109c3334604051808373ffffffffffffffffffffffffffffffffffffffff1673ffffffffffffffffffffffffffffffffffffffff1681526020018281526020019250505060405180910390a156fea165627a7a72305820ccbc65bbc7130f31606a79bc073ddb4f61a095273bec0cd993cd9acbf9b9f69c0029",
  "source": "pragma solidity >=0.5.0;\ncontract Askconsortium {\n\n    struct Airline {\n        uint escrow;\n        bool active;\n    }\n\n    struct Request {\n            bytes32 toAirline;\n            uint noOfSeats;\n            bytes32 flightNumber;\n    }\n\n    struct Response {\n            bytes32 toAirline;\n            uint noOfSeats;\n            bytes32 flightNumber;\n            uint done;\n    }\n\n    address payable public chairperson;\n\n    mapping(address => Airline) airlines;\n    mapping(address => Response) responses;\n    mapping(address => Request) requests;\n\n    modifier checkIfactive(){\n        require(airlines[msg.sender].active, 'user is not active');\n        _;\n    }\n\n        modifier checkNotIfactive(){\n        require(!airlines[msg.sender].active, 'user is active');\n        _;\n    }\n\n\n    modifier checkIfadmin(){\n        require(msg.sender == chairperson, 'user is not an admin');\n        _;\n    }\n\n    modifier checkEscrow(){\n        require(msg.value >= 5 ether, 'need to atleast 5 ether');\n        _;\n    }\n\n    event Deposit(\n      address from,\n      uint value\n    );\n\n    constructor() public payable {\n        chairperson = msg.sender;\n        airlines[chairperson].active = true;\n        airlines[chairperson].escrow = msg.value;\n    }\n\n\n    function register() public checkEscrow checkNotIfactive payable{\n        airlines[msg.sender].active = true;\n        airlines[msg.sender].escrow = msg.value;\n    }\n\n    function unregister(address payable airline) public checkIfadmin payable{\n        require(airlines[airline].active, 'User not active');\n        airlines[airline].active = false;\n        airline.transfer(airlines[airline].escrow);\n    }\n\n\n    function settlePayment(address payable toAirline) public payable {\n        /// both airlines must be active\n        require(airlines[msg.sender].active  && airlines[toAirline].active);\n        toAirline.transfer(msg.value);\n        //airlines[toAirline].escrow+=msg.value;\n    }\n\n    function request(bytes32 toAirline, uint noOfSeats,\n                    bytes32 flightNumber) public checkIfactive{\n                    requests[msg.sender].toAirline = toAirline;\n                    requests[msg.sender].noOfSeats = noOfSeats;\n                    requests[msg.sender].flightNumber = flightNumber;\n    }\n\n    function response(bytes32 toAirline, uint noOfSeats,\n                    bytes32 flightNumber, uint done) public checkIfactive{\n                    responses[msg.sender].toAirline = toAirline;\n                    requests[msg.sender].noOfSeats = noOfSeats;\n                    requests[msg.sender].flightNumber = flightNumber;\n                    responses[msg.sender].done = done;\n    }\n\n\n    function replenish() public checkIfactive payable{\n        airlines[msg.sender].escrow += msg.value;\n        emit Deposit(msg.sender, msg.value);\n    }\n\n    function viewBalance() public checkIfactive view returns (uint) {\n        return airlines[msg.sender].escrow;\n    }\n\n\n}\n",
  "sourcePath": "/Users/dkishan/Desktop/SecondSemUB/blockchain/lab2/part3/ASK-blockchain/contracts/Askconsortium.sol",
  "compiler": {
    "name": "solc",
    "version": "0.5.0+commit.1d4f565a.Emscripten.clang"
  },
  "schemaVersion": "3.0.6",
  "updatedAt": "2019-05-14T02:23:37.166Z",
  "devdoc": {
    "methods": {}
  },
  "userdoc": {
    "methods": {}
  }
}