{
  "contractName": "Askconsortium",
  "abi": [
    {
      "constant": true,
      "inputs": [],
      "name": "chairperson",
      "outputs": [
        {
          "name": "",
          "type": "address"
        }
      ],
      "payable": false,
      "stateMutability": "view",
      "type": "function",
      "signature": "0x2e4176cf"
    },
    {
      "inputs": [],
      "payable": true,
      "stateMutability": "payable",
      "type": "constructor",
      "signature": "constructor"
    },
    {
      "constant": false,
      "inputs": [],
      "name": "register",
      "outputs": [],
      "payable": true,
      "stateMutability": "payable",
      "type": "function",
      "signature": "0x1aa3a008"
    },
    {
      "constant": false,
      "inputs": [
        {
          "name": "airline",
          "type": "address"
        }
      ],
      "name": "unregister",
      "outputs": [],
      "payable": false,
      "stateMutability": "nonpayable",
      "type": "function",
      "signature": "0x2ec2c246"
    },
    {
      "constant": true,
      "inputs": [],
      "name": "viewBalance",
      "outputs": [
        {
          "name": "",
          "type": "uint256"
        }
      ],
      "payable": false,
      "stateMutability": "view",
      "type": "function",
      "signature": "0x3ff1e05b"
    }
  ],
  "bytecode": "0x6080604052336000806101000a81548173ffffffffffffffffffffffffffffffffffffffff021916908373ffffffffffffffffffffffffffffffffffffffff16021790555060018060008060009054906101000a900473ffffffffffffffffffffffffffffffffffffffff1673ffffffffffffffffffffffffffffffffffffffff1673ffffffffffffffffffffffffffffffffffffffff16815260200190815260200160002060010160006101000a81548160ff02191690831515021790555034600160008060009054906101000a900473ffffffffffffffffffffffffffffffffffffffff1673ffffffffffffffffffffffffffffffffffffffff1673ffffffffffffffffffffffffffffffffffffffff168152602001908152602001600020600001819055506104b6806101366000396000f3fe608060405260043610610062576000357c0100000000000000000000000000000000000000000000000000000000900463ffffffff1680631aa3a008146100675780632e4176cf146100715780632ec2c246146100c85780633ff1e05b14610119575b600080fd5b61006f610144565b005b34801561007d57600080fd5b506100866102ac565b604051808273ffffffffffffffffffffffffffffffffffffffff1673ffffffffffffffffffffffffffffffffffffffff16815260200191505060405180910390f35b3480156100d457600080fd5b50610117600480360360208110156100eb57600080fd5b81019080803573ffffffffffffffffffffffffffffffffffffffff1690602001909291905050506102d1565b005b34801561012557600080fd5b5061012e6103e5565b6040518082815260200191505060405180910390f35b600160003373ffffffffffffffffffffffffffffffffffffffff1673ffffffffffffffffffffffffffffffffffffffff16815260200190815260200160002060010160009054906101000a900460ff16151515610209576040517f08c379a000000000000000000000000000000000000000000000000000000000815260040180806020018281038252600e8152602001807f757365722069732061637469766500000000000000000000000000000000000081525060200191505060405180910390fd5b60018060003373ffffffffffffffffffffffffffffffffffffffff1673ffffffffffffffffffffffffffffffffffffffff16815260200190815260200160002060010160006101000a81548160ff02191690831515021790555034600160003373ffffffffffffffffffffffffffffffffffffffff1673ffffffffffffffffffffffffffffffffffffffff16815260200190815260200160002060000181905550565b6000809054906101000a900473ffffffffffffffffffffffffffffffffffffffff1681565b6000809054906101000a900473ffffffffffffffffffffffffffffffffffffffff1673ffffffffffffffffffffffffffffffffffffffff163373ffffffffffffffffffffffffffffffffffffffff1614151561032c57600080fd5b600160008273ffffffffffffffffffffffffffffffffffffffff1673ffffffffffffffffffffffffffffffffffffffff16815260200190815260200160002060010160009054906101000a900460ff16151561038757600080fd5b6000600160008373ffffffffffffffffffffffffffffffffffffffff1673ffffffffffffffffffffffffffffffffffffffff16815260200190815260200160002060010160006101000a81548160ff02191690831515021790555050565b6000600160003373ffffffffffffffffffffffffffffffffffffffff1673ffffffffffffffffffffffffffffffffffffffff16815260200190815260200160002060010160009054906101000a900460ff16151561044257600080fd5b600160003373ffffffffffffffffffffffffffffffffffffffff1673ffffffffffffffffffffffffffffffffffffffff1681526020019081526020016000206000015490509056fea165627a7a72305820db12cdd223cb57ee78818d4338ed7e1850f893d721d0772c0d288e14829b4f550029",
  "source": "pragma solidity >=0.5.0;\ncontract Askconsortium {\n\n    struct Airline {\n        uint escrow;\n        bool active;\n    }\n\n    address public chairperson;\n\n    mapping(address => Airline) airlines;\n\n    modifier checkIfactive(){\n        require(airlines[msg.sender].active, 'user is not active');\n        _;\n    }\n\n        modifier checkNotIfactive(){\n        require(!airlines[msg.sender].active, 'user is active');\n        _;\n    }\n\n\n    modifier checkIfadmin(){\n        require(msg.sender == chairperson, 'user is not an admin');\n        _;\n    }\n\n\n\n    constructor() public payable {\n        chairperson = msg.sender;\n        airlines[chairperson].active = true;\n        airlines[chairperson].escrow = msg.value;\n    }\n\n\n    function register() public payable checkNotIfactive{\n        airlines[msg.sender].active = true;\n        airlines[msg.sender].escrow = msg.value;\n    }\n\n    function unregister(address airline) public {\n        require(msg.sender == chairperson);\n        require(airlines[airline].active);\n        airlines[airline].active = false;\n    }\n\n    function viewBalance() public view returns (uint) {\n        /// user must be active\n        require(airlines[msg.sender].active);\n        return airlines[msg.sender].escrow;\n    }\n\n\n}\n",
  "sourcePath": "/Users/dkishan/Desktop/SecondSemUB/blockchain/lab2/part3/ASK-blockchain/contracts/Askconsortium.sol",
  "compiler": {
    "name": "solc",
    "version": "0.5.0+commit.1d4f565a.Emscripten.clang"
  },
  "schemaVersion": "3.0.6",
  "updatedAt": "2019-04-29T22:34:12.351Z",
  "devdoc": {
    "methods": {}
  },
  "userdoc": {
    "methods": {}
  }
}