{
  "contractName": "Counter",
  "abi": [
    {
      "constant": false,
      "inputs": [
        {
          "name": "x",
          "type": "uint256"
        }
      ],
      "name": "initialize",
      "outputs": [],
      "payable": false,
      "stateMutability": "nonpayable",
      "type": "function",
      "signature": "0xfe4b84df"
    },
    {
      "constant": true,
      "inputs": [],
      "name": "get",
      "outputs": [
        {
          "name": "",
          "type": "uint256"
        }
      ],
      "payable": false,
      "stateMutability": "view",
      "type": "function",
      "signature": "0x6d4ce63c"
    },
    {
      "constant": false,
      "inputs": [
        {
          "name": "n",
          "type": "uint256"
        }
      ],
      "name": "increment",
      "outputs": [],
      "payable": false,
      "stateMutability": "nonpayable",
      "type": "function",
      "signature": "0x7cf5dab0"
    },
    {
      "constant": false,
      "inputs": [
        {
          "name": "n",
          "type": "uint256"
        }
      ],
      "name": "decrement",
      "outputs": [],
      "payable": false,
      "stateMutability": "nonpayable",
      "type": "function",
      "signature": "0x3a9ebefd"
    }
  ],
  "bytecode": "0x608060405234801561001057600080fd5b5061019e806100206000396000f3fe608060405260043610610062576000357c0100000000000000000000000000000000000000000000000000000000900463ffffffff1680633a9ebefd146100675780636d4ce63c146100a25780637cf5dab0146100cd578063fe4b84df14610108575b600080fd5b34801561007357600080fd5b506100a06004803603602081101561008a57600080fd5b8101908080359060200190929190505050610143565b005b3480156100ae57600080fd5b506100b7610151565b6040518082815260200191505060405180910390f35b3480156100d957600080fd5b50610106600480360360208110156100f057600080fd5b810190808035906020019092919050505061015a565b005b34801561011457600080fd5b506101416004803603602081101561012b57600080fd5b8101908080359060200190929190505050610168565b005b806000540360008190555050565b60008054905090565b806000540160008190555050565b806000819055505056fea165627a7a723058204e917d0275aa87c4177063dabbb095e9cf3b42aa066ef62b9cd1d54bdb987f040029",
  "source": "pragma solidity ^0.5.0; \n// imagine a big integer counter that the whole world could share\ncontract Counter {\n    uint value; \n    function initialize (uint x) public { \n        value = x;\n    }\n\n    function get() view public returns (uint) { \n        return value;\n    }\n    \n    function increment (uint n) public { \n        value = value + n;\n        return;\n    }\n    \n    function decrement (uint n) public { \n        value = value - n;\n        return;\n    }\n}\n",
  "sourcePath": "/Users/dkishan/Desktop/SecondSemUB/blockchain/lab2/part3/ASK-blockchain/contracts/Counter.sol",
  "compiler": {
    "name": "solc",
    "version": "0.5.0+commit.1d4f565a.Emscripten.clang"
  },
  "schemaVersion": "3.0.6",
  "updatedAt": "2019-04-29T22:34:11.672Z",
  "devdoc": {
    "methods": {}
  },
  "userdoc": {
    "methods": {}
  }
}